:10058B002020202057454C434F4D45212020202033
:10059B00007C2D2D2D2048434D5554202D2D2D7C89
:1005AB002000435541204441204B484F41202121FD
:1005BB00004E484150204D4154204B4841553A2A5A
:1005CB0000444F49204D4154204B4841553A20237C
:1005DB00004E484150204D4154204B4841553A2044
:1005EB00004E484150205448414E4820434F4E47FF
:1005FB002100534149204D4154204B484155005651
:10060B005549204C4F4E4720544855204C414900EA
:10061B004B484F412056494E48205649454E2121C3
:10062B00004E484150204D4154204B4841552043EA
:10063B0055004E484150204D41544B484155204D9B
:10064B004F49004E484150204D4B204C414E2032DB
:10065B003A00444F49205448414E4820434F4E479F
:10066B0021004B484F4E4720484F50204C4521000E
:10067B00534149204D4154204B48415521004441A1
:10068B004E47204D4F204355412E2E2E0044414EB8
:0E069B004720444F4E47204355412E2E2E003F
:10094E001028313233343500000000000000000062
:02095E00000097
:10000300C2B3C2B2C287E4F5A07590FF1208CA7BDF
:10001300FF7A05798B1208777FC01208F57BFF7A88
:1000230005799C1208777F647E001208271208CA9C
:100033007BFF7A0579AD1208777F647E001208276B
:10004300E4F54CF54D7F011208F57F021208F57BAC
:10005300FF7A0579BC1208777FC01208F57BFF7A17
:100063000579CC120877E4F54AF54B1209378F521C
:100073007F647E00120827054BE54B7002054AC3D7
:100083009401E54A6480948040E1E552642A600368
:100093000201BB1208CA7BFF7A0579DC1208777F5D
:1000A300C01208F5E4F548F549C3E5499410E5485D
:0600B300648094805057A8
:1000B900E4F553C3E553941074809480500B74385D
:1000C9002553F8E4F6055380EA1209378F527F6405
:1000D9007E00120827E54964104548601AE5526414
:1000E9002A601474382549F8A6520549E549700271
:1000F9000548E552B42AD2E552642A600A0549E561
:050109004970A005484B
:10010E00809C7F011208F57F021208F578287C008A
:10011E007D007B007A00793812056EEF3395E04F43
:10012E0070277BFF7A0579EC120877E4F54CF54DD4
:10013E00D2B3C2B27FC8FE1208271209737FC87EDF
:10014E00001208271208A18045054DE54D700205E5
:10015E004C7BFF7A0579FD120877C2B3D2B2120931
:10016E0007C2B3C2B27F647E001208277F01120855
:10017E00F57F021208F5E54D6405454C601D7BFFC9
:10018E007A06790A1208777FC87E001208277F0147
:10019E001208F57F021208F50200487BFF7A0679F5
:1001AE001B1208777F647E0012082780F7E55264E1
:1001BE002360030200481208CA7BFF7A06792C12CC
:1001CE0008777FC01208F5E4F548F549C3E5499470
:0901DE0010E5486480948050573C
:1001E700E4F553C3E553941074809480500B74382E
:1001F7002553F8E4F6055380EA1209378F527F64D6
:100207007E00120827E54964104548601AE55264E4
:100217002A601474382549F8A6520549E549700241
:100227000548E552B42AD2E552642A600A0549E531
:050237004970A005481C
:10023C00809C7F011208F57F021208F578287C005B
:10024C007D007B007A00793812056EEF3395E04F14
:05025C0060030203C174
:10026100F553C3E553941074809480500B740825A2
:1002710053F8E4F6055380EA7BFF7A06793D1208CC
:10028100777FC01208F5E4F54EF54F1209378F520A
:100291007F647E00120827E54F6410454E601AE521
:1002A10052642A60147408254FF8A652054FE54F91
:1002B1007002054EE552B42AD2E552642A60130554
:1002C1004FE54F7002054EC39410E54E6480948053
:1002D10040B9E4F553C3E553941074809480500BF6
:1002E10074182553F8E4F6055380EA1208CA7BFF17
:1002F1007A06794E1208777FC01208F5E4F550F5B9
:10030100511209378F527F647E00120827E551642C
:10031100104550601AE552642A601474182551F88A
:10032100A6520551E55170020550E552B42AD2E5B5
:1003310052642A60130551E55170020550C39410AF
:10034100E5506480948040B91208CA78087C007D29
:10035100007B007A00791812056EEF3395E04F703B
:010361005348
:100362007BFF7A06795D1208777F647E0012082788
:100372001208CAE4F554C3E5549410748094805072
:100382000B74282554F8E4F6055480EAE4F554C3C6
:10039200E5549551E5506480F8748098400302005A
:1003A2004874182554F8E6FF74282554F8A6070562
:0303B2005480DC98
:0903B5007BFF7A06796D120877CE
:1003BE000200487BFF7A06797B1208777F647E0005
:0903CE001208271208CA020048B7
:1008CA007F381208F51208237F011208F51208234F
:1008DA007F801208F51208237F0E1208F57F027E28
:0408EA0000020827D9
:09081E007F2A1209617F027E00AD
:10082700E4FDFCC3ED9FEE6480F8EC6480985015FE
:10083700E4FBFA0BBB00010ABA04F8BBFBF50DBDDC
:0508470000010C80DE41
:01084C002289
:04084D007F327E0078
:10085100E4FDFCC3ED9FEE6480F8EC6480985015D4
:10086100E4FBFA0BBB00010AEB647B4A70F50DBD9A
:0508710000010C80DE17
:01087600225F
:0708EE007F011208F57F02F3
:1008F5008F90C2B4C2B5D2B67F017E00120827C25E
:02090500B62218
:100877008B558A568957AB55AA56A9571203D7FFE6
:1008870060171209617F057E00120827740125573A
:0A089700F557E43556F55680DD22D2
:100961008F90D2B4C2B5D2B67F017E00120827C2E1
:02097100B622AC
:10090700900000D2877F287E00120827C287A3E5C0
:07091700826405458370ECCA
:01091E0022B6
:100973001208EE7BFF7A067989120877D2B0C2B1EA
:010983002251
:1008A1001208EE7BFF7A067998120877C2B0C2B1BE
:1008B1007F147E00120827C2B0D2B17FC812082768
:0908C100C2B0C2B1C2B3C2B2223E
:10091F00900000D2877F017E00120827C287A3E5CF
:07092F00826405458370ECB2
:01093600229E
:10093700796EB96E071206A9A90780F6E9646E6099
:060947000312091FAF01BD
:01094D002287
:1006A900D286D285D284C283C282C281C280C280EC
:1006B900D283D282D28120840C12084D2084061262
:1006C900081E7F312220850C12084D20850612084C
:1006D9001E7F322220860C12084D20860612081E23
:1006E9007F3322C281D283D282D28020840C120825
:1006F9004D20840612081E7F342220850C12084DD5
:1007090020850612081E7F352220860C12084D20EE
:10071900860612081E7F3622C282D283D281D280F7
:1007290020840C12084D20840612081E7F372220CF
:10073900850C12084D20850612081E7F3822208656
:100749000C12084D20860612081E7F3922C283D258
:1007590082D281D28020840E12084D2084087F2005
:100769001208207F2A2220850C12084D20850612A6
:10077900081E7F302220860E12084D2086087F2011
:090789001208207F23227F6E225A
:0300000002079262
:0C079200787FE4F6D8FD7581570207D986
:1003D700BB010689828A83E0225002E722BBFE0224
:0903E700E32289828A83E4932257
:1003F000E3F5F009E208B5F06D606B80F3E3F5F02A
:1004000009E608B5F060605E80F387F009E608B59C
:10041000F054605280F487F009E208B5F048604675
:1004200080F488828C8387F009E0A3B5F0386036C9
:1004300080F488828C8387F009E493A3B5F0276069
:100440002580F388828C83E3F5F009E0A3B5F016EC
:10045000601480F388828C83E3F5F009E493A3B5FC
:10046000F004600280F202051B808580E7808E80A8
:10047000D2803C8015806C807E809B80B5808B8094
:10048000A1804F8070803A02052789828A83ECFA26
:10049000E493F5F0A3C8C582C8CCC583CCE493A38C
:1004A000C8C582C8CCC583CCB5F070606E80E189C8
:1004B000828A83E493F5F0A3E208B5F05E605C8085
:1004C000F289828A83E0F5F0A3E608B5F04D604B2F
:1004D00080F389828A83E0F5F0A3E208B5F03C60FE
:1004E0003A80F389828A83E493F5F0A3E608B5F0B5
:1004F0002A602880F2805389828A83ECFAE493F59B
:10050000F0A3C8C582C8CCC583CCE0A3C8C582C847
:10051000CCC583CCB5F004600280E27FFFB5F00269
:100520000F2240027F012289828A83ECFAE0F5F0F3
:10053000A3C8C582C8CCC583CCE0A3C8C582C8CC3B
:10054000C583CCB5F0D560D380E389828A83ECFA89
:10055000E0F5F0A3C8C582C8CCC583CCE493A3C89A
:10056000C582C8CCC583CCB5F0B160AF80E288F05D
:10057000ED2402B4040050A3F582EB2402B404007D
:0B0580005099232345822390046973E7
:10079E00020003E493A3F8E493A34003F68001F26E
:1007AE0008DFF48029E493A3F85407240CC8C3335C
:1007BE00C4540F4420C8834004F456800146F6DF2B
:1007CE00E4800B010204081020408090094EE47E64
:1007DE00019360BCA3FF543F30E509541FFEE49320
:1007EE00A360010ECF54C025E060A840B8E493A3E7
:1007FE00FAE493A3F8E493A3C8C582C8CAC583CA12
:10080E00F0A3C8C582C8CAC583CADFE9DEE780BEC9
:010960000096
:00000001FF
